{
  "_format": "hh-sol-artifact-1",
  "contractName": "Funds",
  "sourceName": "contracts/Funds.sol",
  "abi": [
    {
      "inputs": [],
      "stateMutability": "nonpayable",
      "type": "constructor"
    },
    {
      "inputs": [
        {
          "internalType": "uint256",
          "name": "_amount",
          "type": "uint256"
        }
      ],
      "name": "AddFunds",
      "outputs": [],
      "stateMutability": "nonpayable",
      "type": "function"
    },
    {
      "inputs": [
        {
          "internalType": "uint256",
          "name": "_amount",
          "type": "uint256"
        },
        {
          "internalType": "string",
          "name": "_to",
          "type": "string"
        },
        {
          "internalType": "string",
          "name": "_project",
          "type": "string"
        }
      ],
      "name": "AllocateFunds",
      "outputs": [],
      "stateMutability": "nonpayable",
      "type": "function"
    },
    {
      "inputs": [],
      "name": "CentralLogin",
      "outputs": [
        {
          "internalType": "bool",
          "name": "",
          "type": "bool"
        }
      ],
      "stateMutability": "view",
      "type": "function"
    },
    {
      "inputs": [
        {
          "internalType": "string",
          "name": "_name",
          "type": "string"
        }
      ],
      "name": "CheckRegister",
      "outputs": [
        {
          "internalType": "bool",
          "name": "",
          "type": "bool"
        }
      ],
      "stateMutability": "view",
      "type": "function"
    },
    {
      "inputs": [],
      "name": "GetBalance",
      "outputs": [
        {
          "internalType": "uint256",
          "name": "",
          "type": "uint256"
        }
      ],
      "stateMutability": "view",
      "type": "function"
    },
    {
      "inputs": [],
      "name": "GetSpend",
      "outputs": [
        {
          "internalType": "uint256",
          "name": "",
          "type": "uint256"
        }
      ],
      "stateMutability": "view",
      "type": "function"
    },
    {
      "inputs": [],
      "name": "GovernmentDetails",
      "outputs": [
        {
          "components": [
            {
              "internalType": "address",
              "name": "add",
              "type": "address"
            },
            {
              "internalType": "string",
              "name": "gov_type",
              "type": "string"
            },
            {
              "internalType": "string",
              "name": "name",
              "type": "string"
            },
            {
              "internalType": "uint256",
              "name": "balance",
              "type": "uint256"
            },
            {
              "internalType": "uint256",
              "name": "spend",
              "type": "uint256"
            }
          ],
          "internalType": "struct Funds.Government",
          "name": "",
          "type": "tuple"
        }
      ],
      "stateMutability": "view",
      "type": "function"
    },
    {
      "inputs": [],
      "name": "GovernmentLogin",
      "outputs": [
        {
          "internalType": "bool",
          "name": "",
          "type": "bool"
        }
      ],
      "stateMutability": "view",
      "type": "function"
    },
    {
      "inputs": [
        {
          "internalType": "address",
          "name": "_add",
          "type": "address"
        },
        {
          "internalType": "string",
          "name": "_govtype",
          "type": "string"
        },
        {
          "internalType": "string",
          "name": "_name",
          "type": "string"
        }
      ],
      "name": "Register",
      "outputs": [],
      "stateMutability": "nonpayable",
      "type": "function"
    },
    {
      "inputs": [
        {
          "internalType": "uint256",
          "name": "_amount",
          "type": "uint256"
        },
        {
          "internalType": "string",
          "name": "_to",
          "type": "string"
        },
        {
          "internalType": "string",
          "name": "_project",
          "type": "string"
        }
      ],
      "name": "TransferFunds",
      "outputs": [],
      "stateMutability": "nonpayable",
      "type": "function"
    },
    {
      "inputs": [
        {
          "internalType": "uint256",
          "name": "",
          "type": "uint256"
        }
      ],
      "name": "alloc",
      "outputs": [
        {
          "internalType": "uint256",
          "name": "amount",
          "type": "uint256"
        },
        {
          "internalType": "uint256",
          "name": "time",
          "type": "uint256"
        }
      ],
      "stateMutability": "view",
      "type": "function"
    },
    {
      "inputs": [],
      "name": "balance",
      "outputs": [
        {
          "internalType": "uint256",
          "name": "",
          "type": "uint256"
        }
      ],
      "stateMutability": "view",
      "type": "function"
    },
    {
      "inputs": [],
      "name": "central",
      "outputs": [
        {
          "internalType": "address",
          "name": "",
          "type": "address"
        }
      ],
      "stateMutability": "view",
      "type": "function"
    },
    {
      "inputs": [],
      "name": "getAllGovernmentAllocatedTrancations",
      "outputs": [
        {
          "components": [
            {
              "internalType": "address",
              "name": "from",
              "type": "address"
            },
            {
              "internalType": "address",
              "name": "to",
              "type": "address"
            },
            {
              "internalType": "string",
              "name": "from_name",
              "type": "string"
            },
            {
              "internalType": "string",
              "name": "to_name",
              "type": "string"
            },
            {
              "internalType": "uint256",
              "name": "time",
              "type": "uint256"
            },
            {
              "internalType": "uint256",
              "name": "amount",
              "type": "uint256"
            },
            {
              "internalType": "string",
              "name": "project_name",
              "type": "string"
            }
          ],
          "internalType": "struct Funds.Transactions[]",
          "name": "",
          "type": "tuple[]"
        }
      ],
      "stateMutability": "view",
      "type": "function"
    },
    {
      "inputs": [],
      "name": "getAllGovernmentSpendTrancations",
      "outputs": [
        {
          "components": [
            {
              "internalType": "address",
              "name": "from",
              "type": "address"
            },
            {
              "internalType": "address",
              "name": "to",
              "type": "address"
            },
            {
              "internalType": "string",
              "name": "from_name",
              "type": "string"
            },
            {
              "internalType": "string",
              "name": "to_name",
              "type": "string"
            },
            {
              "internalType": "uint256",
              "name": "time",
              "type": "uint256"
            },
            {
              "internalType": "uint256",
              "name": "amount",
              "type": "uint256"
            },
            {
              "internalType": "string",
              "name": "project_name",
              "type": "string"
            }
          ],
          "internalType": "struct Funds.Transactions[]",
          "name": "",
          "type": "tuple[]"
        }
      ],
      "stateMutability": "view",
      "type": "function"
    },
    {
      "inputs": [],
      "name": "getAllGovernmentTrancations",
      "outputs": [
        {
          "components": [
            {
              "internalType": "address",
              "name": "from",
              "type": "address"
            },
            {
              "internalType": "address",
              "name": "to",
              "type": "address"
            },
            {
              "internalType": "string",
              "name": "from_name",
              "type": "string"
            },
            {
              "internalType": "string",
              "name": "to_name",
              "type": "string"
            },
            {
              "internalType": "uint256",
              "name": "time",
              "type": "uint256"
            },
            {
              "internalType": "uint256",
              "name": "amount",
              "type": "uint256"
            },
            {
              "internalType": "string",
              "name": "project_name",
              "type": "string"
            }
          ],
          "internalType": "struct Funds.Transactions[]",
          "name": "",
          "type": "tuple[]"
        }
      ],
      "stateMutability": "view",
      "type": "function"
    },
    {
      "inputs": [],
      "name": "getAllTrancations",
      "outputs": [
        {
          "components": [
            {
              "internalType": "address",
              "name": "from",
              "type": "address"
            },
            {
              "internalType": "address",
              "name": "to",
              "type": "address"
            },
            {
              "internalType": "string",
              "name": "from_name",
              "type": "string"
            },
            {
              "internalType": "string",
              "name": "to_name",
              "type": "string"
            },
            {
              "internalType": "uint256",
              "name": "time",
              "type": "uint256"
            },
            {
              "internalType": "uint256",
              "name": "amount",
              "type": "uint256"
            },
            {
              "internalType": "string",
              "name": "project_name",
              "type": "string"
            }
          ],
          "internalType": "struct Funds.Transactions[]",
          "name": "",
          "type": "tuple[]"
        }
      ],
      "stateMutability": "view",
      "type": "function"
    },
    {
      "inputs": [],
      "name": "getAllocatedFunds",
      "outputs": [
        {
          "components": [
            {
              "internalType": "uint256",
              "name": "amount",
              "type": "uint256"
            },
            {
              "internalType": "uint256",
              "name": "time",
              "type": "uint256"
            }
          ],
          "internalType": "struct Funds.Allocated[]",
          "name": "",
          "type": "tuple[]"
        }
      ],
      "stateMutability": "view",
      "type": "function"
    },
    {
      "inputs": [],
      "name": "getTransactionCount",
      "outputs": [
        {
          "internalType": "uint256",
          "name": "",
          "type": "uint256"
        }
      ],
      "stateMutability": "view",
      "type": "function"
    },
    {
      "inputs": [
        {
          "internalType": "uint256",
          "name": "",
          "type": "uint256"
        }
      ],
      "name": "gov",
      "outputs": [
        {
          "internalType": "address",
          "name": "add",
          "type": "address"
        },
        {
          "internalType": "string",
          "name": "gov_type",
          "type": "string"
        },
        {
          "internalType": "string",
          "name": "name",
          "type": "string"
        },
        {
          "internalType": "uint256",
          "name": "balance",
          "type": "uint256"
        },
        {
          "internalType": "uint256",
          "name": "spend",
          "type": "uint256"
        }
      ],
      "stateMutability": "view",
      "type": "function"
    },
    {
      "inputs": [],
      "name": "spend",
      "outputs": [
        {
          "internalType": "uint256",
          "name": "",
          "type": "uint256"
        }
      ],
      "stateMutability": "view",
      "type": "function"
    },
    {
      "inputs": [
        {
          "internalType": "uint256",
          "name": "",
          "type": "uint256"
        }
      ],
      "name": "transactions",
      "outputs": [
        {
          "internalType": "address",
          "name": "from",
          "type": "address"
        },
        {
          "internalType": "address",
          "name": "to",
          "type": "address"
        },
        {
          "internalType": "string",
          "name": "from_name",
          "type": "string"
        },
        {
          "internalType": "string",
          "name": "to_name",
          "type": "string"
        },
        {
          "internalType": "uint256",
          "name": "time",
          "type": "uint256"
        },
        {
          "internalType": "uint256",
          "name": "amount",
          "type": "uint256"
        },
        {
          "internalType": "string",
          "name": "project_name",
          "type": "string"
        }
      ],
      "stateMutability": "view",
      "type": "function"
    }
  ],
  "bytecode": "0x60806040523480156200001157600080fd5b50336000806101000a81548173ffffffffffffffffffffffffffffffffffffffff021916908373ffffffffffffffffffffffffffffffffffffffff16021790555060006001819055506000600281905550600060038190555060056040518060a001604052803373ffffffffffffffffffffffffffffffffffffffff1681526020016040518060400160405280600781526020017f43656e7472616c0000000000000000000000000000000000000000000000000081525081526020016040518060400160405280600781526020017f43656e7472616c000000000000000000000000000000000000000000000000008152508152602001600081526020016000815250908060018154018082558091505060019003906000526020600020906005020160009091909190915060008201518160000160006101000a81548173ffffffffffffffffffffffffffffffffffffffff021916908373ffffffffffffffffffffffffffffffffffffffff1602179055506020820151816001019080519060200190620001a3929190620001df565b506040820151816002019080519060200190620001c2929190620001df565b5060608201518160030155608082015181600401555050620002f4565b828054620001ed906200028f565b90600052602060002090601f0160209004810192826200021157600085556200025d565b82601f106200022c57805160ff19168380011785556200025d565b828001600101855582156200025d579182015b828111156200025c5782518255916020019190600101906200023f565b5b5090506200026c919062000270565b5090565b5b808211156200028b57600081600090555060010162000271565b5090565b60006002820490506001821680620002a857607f821691505b60208210811415620002bf57620002be620002c5565b5b50919050565b7f4e487b7100000000000000000000000000000000000000000000000000000000600052602260045260246000fd5b613f8c80620003046000396000f3fe608060405234801561001057600080fd5b50600436106101425760003560e01c80639ace38c2116100b8578063e2c358e61161007c578063e2c358e61461035e578063e948b9c61461037c578063f20b245a146103b0578063f383027b146103cc578063f8f8a912146103ea578063fd395f741461040857610142565b80639ace38c2146102b2578063b2048cd1146102e8578063b69ef8a814610306578063b7826af814610324578063ce032f561461034257610142565b806339a35f601161010a57806339a35f60146101f05780634054ff731461020e57806345615bcc1461022a57806356e76a6614610248578063729d8f69146102785780637926fdb71461029657610142565b806307676a73146101475780630c78065c14610165578063191ac2d2146101835780632338bd8b146101b45780632e7700f0146101d2575b600080fd5b61014f610426565b60405161015c9190613b12565b60405180910390f35b61016d610965565b60405161017a9190613b12565b60405180910390f35b61019d60048036038101906101989190613558565b610c3a565b6040516101ab929190613b8c565b60405180910390f35b6101bc610c6e565b6040516101c99190613b12565b60405180910390f35b6101da6111ad565b6040516101e79190613b71565b60405180910390f35b6101f86111b7565b6040516102059190613b71565b60405180910390f35b61022860048036038101906102239190613581565b6111c1565b005b61023261182b565b60405161023f9190613b71565b60405180910390f35b610262600480360381019061025d9190613517565b611831565b60405161026f9190613b34565b60405180910390f35b6102806119b9565b60405161028d9190613b4f565b60405180910390f35b6102b060048036038101906102ab9190613581565b611cfb565b005b6102cc60048036038101906102c79190613558565b6121a4565b6040516102df9796959493929190613a0b565b60405180910390f35b6102f06123ce565b6040516102fd9190613b34565b60405180910390f35b61030e6124ab565b60405161031b9190613b71565b60405180910390f35b61032c6124b1565b60405161033991906139f0565b60405180910390f35b61035c60048036038101906103579190613558565b6124d5565b005b6103666125a0565b6040516103739190613b34565b60405180910390f35b61039660048036038101906103919190613558565b612608565b6040516103a7959493929190613a8f565b60405180910390f35b6103ca60048036038101906103c59190613498565b61277e565b005b6103d4612884565b6040516103e19190613af0565b60405180910390f35b6103f26128f7565b6040516103ff9190613b71565b60405180910390f35b610410612901565b60405161041d9190613b12565b60405180910390f35b6060600060068054905090506000805b82811015610500573373ffffffffffffffffffffffffffffffffffffffff166006828154811061048f577f4e487b7100000000000000000000000000000000000000000000000000000000600052603260045260246000fd5b906000526020600020906007020160010160009054906101000a900473ffffffffffffffffffffffffffffffffffffffff1673ffffffffffffffffffffffffffffffffffffffff1614156104ed576001826104ea9190613cca565b91505b80806104f890613e41565b915050610436565b5060008167ffffffffffffffff811115610543577f4e487b7100000000000000000000000000000000000000000000000000000000600052604160045260246000fd5b60405190808252806020026020018201604052801561057c57816020015b6105696132b5565b8152602001906001900390816105615790505b5090506000805b8481101561095a573373ffffffffffffffffffffffffffffffffffffffff16600682815481106105dc577f4e487b7100000000000000000000000000000000000000000000000000000000600052603260045260246000fd5b906000526020600020906007020160010160009054906101000a900473ffffffffffffffffffffffffffffffffffffffff1673ffffffffffffffffffffffffffffffffffffffff1614156109475760068181548110610664577f4e487b7100000000000000000000000000000000000000000000000000000000600052603260045260246000fd5b90600052602060002090600702016040518060e00160405290816000820160009054906101000a900473ffffffffffffffffffffffffffffffffffffffff1673ffffffffffffffffffffffffffffffffffffffff1673ffffffffffffffffffffffffffffffffffffffff1681526020016001820160009054906101000a900473ffffffffffffffffffffffffffffffffffffffff1673ffffffffffffffffffffffffffffffffffffffff1673ffffffffffffffffffffffffffffffffffffffff16815260200160028201805461073990613dde565b80601f016020809104026020016040519081016040528092919081815260200182805461076590613dde565b80156107b25780601f10610787576101008083540402835291602001916107b2565b820191906000526020600020905b81548152906001019060200180831161079557829003601f168201915b505050505081526020016003820180546107cb90613dde565b80601f01602080910402602001604051908101604052809291908181526020018280546107f790613dde565b80156108445780601f1061081957610100808354040283529160200191610844565b820191906000526020600020905b81548152906001019060200180831161082757829003601f168201915b50505050508152602001600482015481526020016005820154815260200160068201805461087190613dde565b80601f016020809104026020016040519081016040528092919081815260200182805461089d90613dde565b80156108ea5780601f106108bf576101008083540402835291602001916108ea565b820191906000526020600020905b8154815290600101906020018083116108cd57829003601f168201915b50505050508152505083838151811061092c577f4e487b7100000000000000000000000000000000000000000000000000000000600052603260045260246000fd5b60200260200101819052506001826109449190613cca565b91505b808061095290613e41565b915050610583565b508194505050505090565b60606006805480602002602001604051908101604052809291908181526020016000905b82821015610c3157838290600052602060002090600702016040518060e00160405290816000820160009054906101000a900473ffffffffffffffffffffffffffffffffffffffff1673ffffffffffffffffffffffffffffffffffffffff1673ffffffffffffffffffffffffffffffffffffffff1681526020016001820160009054906101000a900473ffffffffffffffffffffffffffffffffffffffff1673ffffffffffffffffffffffffffffffffffffffff1673ffffffffffffffffffffffffffffffffffffffff168152602001600282018054610a6890613dde565b80601f0160208091040260200160405190810160405280929190818152602001828054610a9490613dde565b8015610ae15780601f10610ab657610100808354040283529160200191610ae1565b820191906000526020600020905b815481529060010190602001808311610ac457829003601f168201915b50505050508152602001600382018054610afa90613dde565b80601f0160208091040260200160405190810160405280929190818152602001828054610b2690613dde565b8015610b735780601f10610b4857610100808354040283529160200191610b73565b820191906000526020600020905b815481529060010190602001808311610b5657829003601f168201915b505050505081526020016004820154815260200160058201548152602001600682018054610ba090613dde565b80601f0160208091040260200160405190810160405280929190818152602001828054610bcc90613dde565b8015610c195780601f10610bee57610100808354040283529160200191610c19565b820191906000526020600020905b815481529060010190602001808311610bfc57829003601f168201915b50505050508152505081526020019060010190610989565b50505050905090565b60048181548110610c4a57600080fd5b90600052602060002090600202016000915090508060000154908060010154905082565b6060600060068054905090506000805b82811015610d48573373ffffffffffffffffffffffffffffffffffffffff1660068281548110610cd7577f4e487b7100000000000000000000000000000000000000000000000000000000600052603260045260246000fd5b906000526020600020906007020160000160009054906101000a900473ffffffffffffffffffffffffffffffffffffffff1673ffffffffffffffffffffffffffffffffffffffff161415610d3557600182610d329190613cca565b91505b8080610d4090613e41565b915050610c7e565b5060008167ffffffffffffffff811115610d8b577f4e487b7100000000000000000000000000000000000000000000000000000000600052604160045260246000fd5b604051908082528060200260200182016040528015610dc457816020015b610db16132b5565b815260200190600190039081610da95790505b5090506000805b848110156111a2573373ffffffffffffffffffffffffffffffffffffffff1660068281548110610e24577f4e487b7100000000000000000000000000000000000000000000000000000000600052603260045260246000fd5b906000526020600020906007020160000160009054906101000a900473ffffffffffffffffffffffffffffffffffffffff1673ffffffffffffffffffffffffffffffffffffffff16141561118f5760068181548110610eac577f4e487b7100000000000000000000000000000000000000000000000000000000600052603260045260246000fd5b90600052602060002090600702016040518060e00160405290816000820160009054906101000a900473ffffffffffffffffffffffffffffffffffffffff1673ffffffffffffffffffffffffffffffffffffffff1673ffffffffffffffffffffffffffffffffffffffff1681526020016001820160009054906101000a900473ffffffffffffffffffffffffffffffffffffffff1673ffffffffffffffffffffffffffffffffffffffff1673ffffffffffffffffffffffffffffffffffffffff168152602001600282018054610f8190613dde565b80601f0160208091040260200160405190810160405280929190818152602001828054610fad90613dde565b8015610ffa5780601f10610fcf57610100808354040283529160200191610ffa565b820191906000526020600020905b815481529060010190602001808311610fdd57829003601f168201915b5050505050815260200160038201805461101390613dde565b80601f016020809104026020016040519081016040528092919081815260200182805461103f90613dde565b801561108c5780601f106110615761010080835404028352916020019161108c565b820191906000526020600020905b81548152906001019060200180831161106f57829003601f168201915b5050505050815260200160048201548152602001600582015481526020016006820180546110b990613dde565b80601f01602080910402602001604051908101604052809291908181526020018280546110e590613dde565b80156111325780601f1061110757610100808354040283529160200191611132565b820191906000526020600020905b81548152906001019060200180831161111557829003601f168201915b505050505081525050838381518110611174577f4e487b7100000000000000000000000000000000000000000000000000000000600052603260045260246000fd5b602002602001018190525060018261118c9190613cca565b91505b808061119a90613e41565b915050610dcb565b508194505050505090565b6000600354905090565b6000600254905090565b6000600580549050905060008060005b8381101561129257856040516020016111ea91906139c2565b604051602081830303815290604052805190602001206005828154811061123a577f4e487b7100000000000000000000000000000000000000000000000000000000600052603260045260246000fd5b906000526020600020906005020160020160405160200161125b91906139d9565b60405160208183030381529060405280519060200120141561127f57809150611292565b808061128a90613e41565b9150506111d1565b5060005b83811015611358573373ffffffffffffffffffffffffffffffffffffffff16600582815481106112ef577f4e487b7100000000000000000000000000000000000000000000000000000000600052603260045260246000fd5b906000526020600020906005020160000160009054906101000a900473ffffffffffffffffffffffffffffffffffffffff1673ffffffffffffffffffffffffffffffffffffffff16141561134557809250611358565b808061135090613e41565b915050611296565b508560058281548110611394577f4e487b7100000000000000000000000000000000000000000000000000000000600052603260045260246000fd5b9060005260206000209060050201600301546113b09190613cca565b600582815481106113ea577f4e487b7100000000000000000000000000000000000000000000000000000000600052603260045260246000fd5b906000526020600020906005020160030181905550856005838154811061143a577f4e487b7100000000000000000000000000000000000000000000000000000000600052603260045260246000fd5b9060005260206000209060050201600301546114569190613d20565b60058381548110611490577f4e487b7100000000000000000000000000000000000000000000000000000000600052603260045260246000fd5b90600052602060002090600502016003018190555085600583815481106114e0577f4e487b7100000000000000000000000000000000000000000000000000000000600052603260045260246000fd5b9060005260206000209060050201600401546114fc9190613cca565b60058381548110611536577f4e487b7100000000000000000000000000000000000000000000000000000000600052603260045260246000fd5b90600052602060002090600502016004018190555060066040518060e001604052803373ffffffffffffffffffffffffffffffffffffffff168152602001600584815481106115ae577f4e487b7100000000000000000000000000000000000000000000000000000000600052603260045260246000fd5b906000526020600020906005020160000160009054906101000a900473ffffffffffffffffffffffffffffffffffffffff1673ffffffffffffffffffffffffffffffffffffffff16815260200160058581548110611635577f4e487b7100000000000000000000000000000000000000000000000000000000600052603260045260246000fd5b9060005260206000209060050201600201805461165190613dde565b80601f016020809104026020016040519081016040528092919081815260200182805461167d90613dde565b80156116ca5780601f1061169f576101008083540402835291602001916116ca565b820191906000526020600020905b8154815290600101906020018083116116ad57829003601f168201915b5050505050815260200187815260200142815260200188815260200186815250908060018154018082558091505060019003906000526020600020906007020160009091909190915060008201518160000160006101000a81548173ffffffffffffffffffffffffffffffffffffffff021916908373ffffffffffffffffffffffffffffffffffffffff16021790555060208201518160010160006101000a81548173ffffffffffffffffffffffffffffffffffffffff021916908373ffffffffffffffffffffffffffffffffffffffff16021790555060408201518160020190805190602001906117bd92919061331e565b5060608201518160030190805190602001906117da92919061331e565b506080820151816004015560a0820151816005015560c082015181600601908051906020019061180b92919061331e565b505050600160035461181d9190613cca565b600381905550505050505050565b60025481565b600080600580549050905060005b818110156119ad578360405160200161185891906139c2565b60405160208183030381529060405280519060200120600582815481106118a8577f4e487b7100000000000000000000000000000000000000000000000000000000600052603260045260246000fd5b90600052602060002090600502016002016040516020016118c991906139d9565b6040516020818303038152906040528051906020012014156118f0576000925050506119b4565b6005818154811061192a577f4e487b7100000000000000000000000000000000000000000000000000000000600052603260045260246000fd5b906000526020600020906005020160000160009054906101000a900473ffffffffffffffffffffffffffffffffffffffff1673ffffffffffffffffffffffffffffffffffffffff163373ffffffffffffffffffffffffffffffffffffffff16141561199a576000925050506119b4565b80806119a590613e41565b91505061183f565b5060019150505b919050565b6119c16133a4565b6000600580549050905060005b81811015611c72573373ffffffffffffffffffffffffffffffffffffffff1660058281548110611a27577f4e487b7100000000000000000000000000000000000000000000000000000000600052603260045260246000fd5b906000526020600020906005020160000160009054906101000a900473ffffffffffffffffffffffffffffffffffffffff1673ffffffffffffffffffffffffffffffffffffffff161415611c5f5760058181548110611aaf577f4e487b7100000000000000000000000000000000000000000000000000000000600052603260045260246000fd5b90600052602060002090600502016040518060a00160405290816000820160009054906101000a900473ffffffffffffffffffffffffffffffffffffffff1673ffffffffffffffffffffffffffffffffffffffff1673ffffffffffffffffffffffffffffffffffffffff168152602001600182018054611b2e90613dde565b80601f0160208091040260200160405190810160405280929190818152602001828054611b5a90613dde565b8015611ba75780601f10611b7c57610100808354040283529160200191611ba7565b820191906000526020600020905b815481529060010190602001808311611b8a57829003601f168201915b50505050508152602001600282018054611bc090613dde565b80601f0160208091040260200160405190810160405280929190818152602001828054611bec90613dde565b8015611c395780601f10611c0e57610100808354040283529160200191611c39565b820191906000526020600020905b815481529060010190602001808311611c1c57829003601f168201915b505050505081526020016003820154815260200160048201548152505092505050611cf8565b8080611c6a90613e41565b9150506119ce565b5060006040518060400160405280600581526020017f656d707479000000000000000000000000000000000000000000000000000000815250905060006040518060a00160405280600073ffffffffffffffffffffffffffffffffffffffff16815260200183815260200183815260200160008152602001600081525090508093505050505b90565b60006005805490509050600080600090505b82811015611dce5784604051602001611d2691906139c2565b6040516020818303038152906040528051906020012060058281548110611d76577f4e487b7100000000000000000000000000000000000000000000000000000000600052603260045260246000fd5b9060005260206000209060050201600201604051602001611d9791906139d9565b604051602081830303815290604052805190602001201415611dbb57809150611dce565b8080611dc690613e41565b915050611d0d565b5084600154611ddd9190613d20565b60018190555084600254611df19190613cca565b6002819055508460058281548110611e32577f4e487b7100000000000000000000000000000000000000000000000000000000600052603260045260246000fd5b906000526020600020906005020160030154611e4e9190613cca565b60058281548110611e88577f4e487b7100000000000000000000000000000000000000000000000000000000600052603260045260246000fd5b9060005260206000209060050201600301819055506001546005600081548110611edb577f4e487b7100000000000000000000000000000000000000000000000000000000600052603260045260246000fd5b9060005260206000209060050201600301819055506002546005600081548110611f2e577f4e487b7100000000000000000000000000000000000000000000000000000000600052603260045260246000fd5b90600052602060002090600502016004018190555060066040518060e0016040528060008054906101000a900473ffffffffffffffffffffffffffffffffffffffff1673ffffffffffffffffffffffffffffffffffffffff16815260200160058481548110611fc6577f4e487b7100000000000000000000000000000000000000000000000000000000600052603260045260246000fd5b906000526020600020906005020160000160009054906101000a900473ffffffffffffffffffffffffffffffffffffffff1673ffffffffffffffffffffffffffffffffffffffff1681526020016040518060400160405280600781526020017f43656e7472616c00000000000000000000000000000000000000000000000000815250815260200186815260200142815260200187815260200185815250908060018154018082558091505060019003906000526020600020906007020160009091909190915060008201518160000160006101000a81548173ffffffffffffffffffffffffffffffffffffffff021916908373ffffffffffffffffffffffffffffffffffffffff16021790555060208201518160010160006101000a81548173ffffffffffffffffffffffffffffffffffffffff021916908373ffffffffffffffffffffffffffffffffffffffff160217905550604082015181600201908051906020019061213792919061331e565b50606082015181600301908051906020019061215492919061331e565b506080820151816004015560a0820151816005015560c082015181600601908051906020019061218592919061331e565b50505060016003546121979190613cca565b6003819055505050505050565b600681815481106121b457600080fd5b90600052602060002090600702016000915090508060000160009054906101000a900473ffffffffffffffffffffffffffffffffffffffff16908060010160009054906101000a900473ffffffffffffffffffffffffffffffffffffffff169080600201805461222390613dde565b80601f016020809104026020016040519081016040528092919081815260200182805461224f90613dde565b801561229c5780601f106122715761010080835404028352916020019161229c565b820191906000526020600020905b81548152906001019060200180831161227f57829003601f168201915b5050505050908060030180546122b190613dde565b80601f01602080910402602001604051908101604052809291908181526020018280546122dd90613dde565b801561232a5780601f106122ff5761010080835404028352916020019161232a565b820191906000526020600020905b81548152906001019060200180831161230d57829003601f168201915b50505050509080600401549080600501549080600601805461234b90613dde565b80601f016020809104026020016040519081016040528092919081815260200182805461237790613dde565b80156123c45780601f10612399576101008083540402835291602001916123c4565b820191906000526020600020905b8154815290600101906020018083116123a757829003601f168201915b5050505050905087565b600080600580549050905060005b818110156124a1573373ffffffffffffffffffffffffffffffffffffffff1660058281548110612435577f4e487b7100000000000000000000000000000000000000000000000000000000600052603260045260246000fd5b906000526020600020906005020160000160009054906101000a900473ffffffffffffffffffffffffffffffffffffffff1673ffffffffffffffffffffffffffffffffffffffff16141561248e576001925050506124a8565b808061249990613e41565b9150506123dc565b5060009150505b90565b60015481565b60008054906101000a900473ffffffffffffffffffffffffffffffffffffffff1681565b806001546124e39190613cca565b600560008154811061251e577f4e487b7100000000000000000000000000000000000000000000000000000000600052603260045260246000fd5b9060005260206000209060050201600301819055506004604051806040016040528083815260200142815250908060018154018082558091505060019003906000526020600020906002020160009091909190915060008201518160000155602082015181600101555050806001546125979190613cca565b60018190555050565b60008060009054906101000a900473ffffffffffffffffffffffffffffffffffffffff1673ffffffffffffffffffffffffffffffffffffffff163373ffffffffffffffffffffffffffffffffffffffff1614156126005760019050612605565b600090505b90565b6005818154811061261857600080fd5b90600052602060002090600502016000915090508060000160009054906101000a900473ffffffffffffffffffffffffffffffffffffffff169080600101805461266190613dde565b80601f016020809104026020016040519081016040528092919081815260200182805461268d90613dde565b80156126da5780601f106126af576101008083540402835291602001916126da565b820191906000526020600020905b8154815290600101906020018083116126bd57829003601f168201915b5050505050908060020180546126ef90613dde565b80601f016020809104026020016040519081016040528092919081815260200182805461271b90613dde565b80156127685780601f1061273d57610100808354040283529160200191612768565b820191906000526020600020905b81548152906001019060200180831161274b57829003601f168201915b5050505050908060030154908060040154905085565b60056040518060a001604052808573ffffffffffffffffffffffffffffffffffffffff168152602001848152602001838152602001600081526020016000815250908060018154018082558091505060019003906000526020600020906005020160009091909190915060008201518160000160006101000a81548173ffffffffffffffffffffffffffffffffffffffff021916908373ffffffffffffffffffffffffffffffffffffffff160217905550602082015181600101908051906020019061284b92919061331e565b50604082015181600201908051906020019061286892919061331e565b5060608201518160030155608082015181600401555050505050565b60606004805480602002602001604051908101604052809291908181526020016000905b828210156128ee578382906000526020600020906002020160405180604001604052908160008201548152602001600182015481525050815260200190600101906128a8565b50505050905090565b6000600154905090565b6060600060068054905090506000805b82811015612a8f573373ffffffffffffffffffffffffffffffffffffffff166006828154811061296a577f4e487b7100000000000000000000000000000000000000000000000000000000600052603260045260246000fd5b906000526020600020906007020160000160009054906101000a900473ffffffffffffffffffffffffffffffffffffffff1673ffffffffffffffffffffffffffffffffffffffff1614156129cc576001826129c59190613cca565b9150612a7c565b3373ffffffffffffffffffffffffffffffffffffffff1660068281548110612a1d577f4e487b7100000000000000000000000000000000000000000000000000000000600052603260045260246000fd5b906000526020600020906007020160010160009054906101000a900473ffffffffffffffffffffffffffffffffffffffff1673ffffffffffffffffffffffffffffffffffffffff161415612a7b57600182612a789190613cca565b91505b5b8080612a8790613e41565b915050612911565b5060008167ffffffffffffffff811115612ad2577f4e487b7100000000000000000000000000000000000000000000000000000000600052604160045260246000fd5b604051908082528060200260200182016040528015612b0b57816020015b612af86132b5565b815260200190600190039081612af05790505b5090506000805b848110156132aa573373ffffffffffffffffffffffffffffffffffffffff1660068281548110612b6b577f4e487b7100000000000000000000000000000000000000000000000000000000600052603260045260246000fd5b906000526020600020906007020160000160009054906101000a900473ffffffffffffffffffffffffffffffffffffffff1673ffffffffffffffffffffffffffffffffffffffff161415612eda5760068181548110612bf3577f4e487b7100000000000000000000000000000000000000000000000000000000600052603260045260246000fd5b90600052602060002090600702016040518060e00160405290816000820160009054906101000a900473ffffffffffffffffffffffffffffffffffffffff1673ffffffffffffffffffffffffffffffffffffffff1673ffffffffffffffffffffffffffffffffffffffff1681526020016001820160009054906101000a900473ffffffffffffffffffffffffffffffffffffffff1673ffffffffffffffffffffffffffffffffffffffff1673ffffffffffffffffffffffffffffffffffffffff168152602001600282018054612cc890613dde565b80601f0160208091040260200160405190810160405280929190818152602001828054612cf490613dde565b8015612d415780601f10612d1657610100808354040283529160200191612d41565b820191906000526020600020905b815481529060010190602001808311612d2457829003601f168201915b50505050508152602001600382018054612d5a90613dde565b80601f0160208091040260200160405190810160405280929190818152602001828054612d8690613dde565b8015612dd35780601f10612da857610100808354040283529160200191612dd3565b820191906000526020600020905b815481529060010190602001808311612db657829003601f168201915b505050505081526020016004820154815260200160058201548152602001600682018054612e0090613dde565b80601f0160208091040260200160405190810160405280929190818152602001828054612e2c90613dde565b8015612e795780601f10612e4e57610100808354040283529160200191612e79565b820191906000526020600020905b815481529060010190602001808311612e5c57829003601f168201915b505050505081525050838381518110612ebb577f4e487b7100000000000000000000000000000000000000000000000000000000600052603260045260246000fd5b6020026020010181905250600182612ed39190613cca565b9150613297565b3373ffffffffffffffffffffffffffffffffffffffff1660068281548110612f2b577f4e487b7100000000000000000000000000000000000000000000000000000000600052603260045260246000fd5b906000526020600020906007020160010160009054906101000a900473ffffffffffffffffffffffffffffffffffffffff1673ffffffffffffffffffffffffffffffffffffffff1614156132965760068181548110612fb3577f4e487b7100000000000000000000000000000000000000000000000000000000600052603260045260246000fd5b90600052602060002090600702016040518060e00160405290816000820160009054906101000a900473ffffffffffffffffffffffffffffffffffffffff1673ffffffffffffffffffffffffffffffffffffffff1673ffffffffffffffffffffffffffffffffffffffff1681526020016001820160009054906101000a900473ffffffffffffffffffffffffffffffffffffffff1673ffffffffffffffffffffffffffffffffffffffff1673ffffffffffffffffffffffffffffffffffffffff16815260200160028201805461308890613dde565b80601f01602080910402602001604051908101604052809291908181526020018280546130b490613dde565b80156131015780601f106130d657610100808354040283529160200191613101565b820191906000526020600020905b8154815290600101906020018083116130e457829003601f168201915b5050505050815260200160038201805461311a90613dde565b80601f016020809104026020016040519081016040528092919081815260200182805461314690613dde565b80156131935780601f1061316857610100808354040283529160200191613193565b820191906000526020600020905b81548152906001019060200180831161317657829003601f168201915b5050505050815260200160048201548152602001600582015481526020016006820180546131c090613dde565b80601f01602080910402602001604051908101604052809291908181526020018280546131ec90613dde565b80156132395780601f1061320e57610100808354040283529160200191613239565b820191906000526020600020905b81548152906001019060200180831161321c57829003601f168201915b50505050508152505083838151811061327b577f4e487b7100000000000000000000000000000000000000000000000000000000600052603260045260246000fd5b60200260200101819052506001826132939190613cca565b91505b5b80806132a290613e41565b915050612b12565b508194505050505090565b6040518060e00160405280600073ffffffffffffffffffffffffffffffffffffffff168152602001600073ffffffffffffffffffffffffffffffffffffffff16815260200160608152602001606081526020016000815260200160008152602001606081525090565b82805461332a90613dde565b90600052602060002090601f01602090048101928261334c5760008555613393565b82601f1061336557805160ff1916838001178555613393565b82800160010185558215613393579182015b82811115613392578251825591602001919060010190613377565b5b5090506133a091906133e9565b5090565b6040518060a00160405280600073ffffffffffffffffffffffffffffffffffffffff168152602001606081526020016060815260200160008152602001600081525090565b5b808211156134025760008160009055506001016133ea565b5090565b600061341961341484613bda565b613bb5565b90508281526020810184848401111561343157600080fd5b61343c848285613d9c565b509392505050565b60008135905061345381613f28565b92915050565b600082601f83011261346a57600080fd5b813561347a848260208601613406565b91505092915050565b60008135905061349281613f3f565b92915050565b6000806000606084860312156134ad57600080fd5b60006134bb86828701613444565b935050602084013567ffffffffffffffff8111156134d857600080fd5b6134e486828701613459565b925050604084013567ffffffffffffffff81111561350157600080fd5b61350d86828701613459565b9150509250925092565b60006020828403121561352957600080fd5b600082013567ffffffffffffffff81111561354357600080fd5b61354f84828501613459565b91505092915050565b60006020828403121561356a57600080fd5b600061357884828501613483565b91505092915050565b60008060006060848603121561359657600080fd5b60006135a486828701613483565b935050602084013567ffffffffffffffff8111156135c157600080fd5b6135cd86828701613459565b925050604084013567ffffffffffffffff8111156135ea57600080fd5b6135f686828701613459565b9150509250925092565b600061360c838361384e565b60408301905092915050565b600061362483836138fa565b905092915050565b61363581613d54565b82525050565b61364481613d54565b82525050565b600061365582613c40565b61365f8185613c7b565b935061366a83613c0b565b8060005b8381101561369b5781516136828882613600565b975061368d83613c61565b92505060018101905061366e565b5085935050505092915050565b60006136b382613c4b565b6136bd8185613c8c565b9350836020820285016136cf85613c1b565b8060005b8581101561370b57848403895281516136ec8582613618565b94506136f783613c6e565b925060208a019950506001810190506136d3565b50829750879550505050505092915050565b61372681613d66565b82525050565b600061373782613c56565b6137418185613c9d565b9350613751818560208601613dab565b61375a81613f17565b840191505092915050565b600061377082613c56565b61377a8185613cae565b935061378a818560208601613dab565b61379381613f17565b840191505092915050565b60006137a982613c56565b6137b38185613cbf565b93506137c3818560208601613dab565b80840191505092915050565b600081546137dc81613dde565b6137e68186613cbf565b94506001821660008114613801576001811461381257613845565b60ff19831686528186019350613845565b61381b85613c2b565b60005b8381101561383d5781548189015260018201915060208101905061381e565b838801955050505b50505092915050565b60408201600082015161386460008501826139a4565b50602082015161387760208501826139a4565b50505050565b600060a083016000830151613895600086018261362c565b50602083015184820360208601526138ad828261372c565b915050604083015184820360408601526138c7828261372c565b91505060608301516138dc60608601826139a4565b5060808301516138ef60808601826139a4565b508091505092915050565b600060e083016000830151613912600086018261362c565b506020830151613925602086018261362c565b506040830151848203604086015261393d828261372c565b91505060608301518482036060860152613957828261372c565b915050608083015161396c60808601826139a4565b5060a083015161397f60a08601826139a4565b5060c083015184820360c0860152613997828261372c565b9150508091505092915050565b6139ad81613d92565b82525050565b6139bc81613d92565b82525050565b60006139ce828461379e565b915081905092915050565b60006139e582846137cf565b915081905092915050565b6000602082019050613a05600083018461363b565b92915050565b600060e082019050613a20600083018a61363b565b613a2d602083018961363b565b8181036040830152613a3f8188613765565b90508181036060830152613a538187613765565b9050613a6260808301866139b3565b613a6f60a08301856139b3565b81810360c0830152613a818184613765565b905098975050505050505050565b600060a082019050613aa4600083018861363b565b8181036020830152613ab68187613765565b90508181036040830152613aca8186613765565b9050613ad960608301856139b3565b613ae660808301846139b3565b9695505050505050565b60006020820190508181036000830152613b0a818461364a565b905092915050565b60006020820190508181036000830152613b2c81846136a8565b905092915050565b6000602082019050613b49600083018461371d565b92915050565b60006020820190508181036000830152613b69818461387d565b905092915050565b6000602082019050613b8660008301846139b3565b92915050565b6000604082019050613ba160008301856139b3565b613bae60208301846139b3565b9392505050565b6000613bbf613bd0565b9050613bcb8282613e10565b919050565b6000604051905090565b600067ffffffffffffffff821115613bf557613bf4613ee8565b5b613bfe82613f17565b9050602081019050919050565b6000819050602082019050919050565b6000819050602082019050919050565b60008190508160005260206000209050919050565b600081519050919050565b600081519050919050565b600081519050919050565b6000602082019050919050565b6000602082019050919050565b600082825260208201905092915050565b600082825260208201905092915050565b600082825260208201905092915050565b600082825260208201905092915050565b600081905092915050565b6000613cd582613d92565b9150613ce083613d92565b9250827fffffffffffffffffffffffffffffffffffffffffffffffffffffffffffffffff03821115613d1557613d14613e8a565b5b828201905092915050565b6000613d2b82613d92565b9150613d3683613d92565b925082821015613d4957613d48613e8a565b5b828203905092915050565b6000613d5f82613d72565b9050919050565b60008115159050919050565b600073ffffffffffffffffffffffffffffffffffffffff82169050919050565b6000819050919050565b82818337600083830152505050565b60005b83811015613dc9578082015181840152602081019050613dae565b83811115613dd8576000848401525b50505050565b60006002820490506001821680613df657607f821691505b60208210811415613e0a57613e09613eb9565b5b50919050565b613e1982613f17565b810181811067ffffffffffffffff82111715613e3857613e37613ee8565b5b80604052505050565b6000613e4c82613d92565b91507fffffffffffffffffffffffffffffffffffffffffffffffffffffffffffffffff821415613e7f57613e7e613e8a565b5b600182019050919050565b7f4e487b7100000000000000000000000000000000000000000000000000000000600052601160045260246000fd5b7f4e487b7100000000000000000000000000000000000000000000000000000000600052602260045260246000fd5b7f4e487b7100000000000000000000000000000000000000000000000000000000600052604160045260246000fd5b6000601f19601f8301169050919050565b613f3181613d54565b8114613f3c57600080fd5b50565b613f4881613d92565b8114613f5357600080fd5b5056fea26469706673582212205e250a3bbe56bc614a9f2ffdea0a65c4fb18b048a5ce0385003ae493c8d21d7e64736f6c63430008010033",
  "linkReferences": {},
  "deployedLinkReferences": {}
}