{
  "_format": "hh-sol-artifact-1",
  "contractName": "Funds",
  "sourceName": "contracts/Funds.sol",
  "abi": [
    {
      "inputs": [],
      "stateMutability": "nonpayable",
      "type": "constructor"
    },
    {
      "inputs": [
        {
          "internalType": "uint256",
          "name": "_amount",
          "type": "uint256"
        }
      ],
      "name": "AddFunds",
      "outputs": [],
      "stateMutability": "nonpayable",
      "type": "function"
    },
    {
      "inputs": [
        {
          "internalType": "uint256",
          "name": "_amount",
          "type": "uint256"
        },
        {
          "internalType": "string",
          "name": "_to",
          "type": "string"
        },
        {
          "internalType": "string",
          "name": "_project",
          "type": "string"
        }
      ],
      "name": "AllocateFunds",
      "outputs": [],
      "stateMutability": "nonpayable",
      "type": "function"
    },
    {
      "inputs": [],
      "name": "CentralLogin",
      "outputs": [
        {
          "internalType": "bool",
          "name": "",
          "type": "bool"
        }
      ],
      "stateMutability": "view",
      "type": "function"
    },
    {
      "inputs": [
        {
          "internalType": "string",
          "name": "_name",
          "type": "string"
        }
      ],
      "name": "CheckRegister",
      "outputs": [
        {
          "internalType": "bool",
          "name": "",
          "type": "bool"
        }
      ],
      "stateMutability": "view",
      "type": "function"
    },
    {
      "inputs": [],
      "name": "GetBalance",
      "outputs": [
        {
          "internalType": "uint256",
          "name": "",
          "type": "uint256"
        }
      ],
      "stateMutability": "view",
      "type": "function"
    },
    {
      "inputs": [],
      "name": "GetSpend",
      "outputs": [
        {
          "internalType": "uint256",
          "name": "",
          "type": "uint256"
        }
      ],
      "stateMutability": "view",
      "type": "function"
    },
    {
      "inputs": [],
      "name": "GovernmentDetails",
      "outputs": [
        {
          "components": [
            {
              "internalType": "address",
              "name": "add",
              "type": "address"
            },
            {
              "internalType": "string",
              "name": "gov_type",
              "type": "string"
            },
            {
              "internalType": "string",
              "name": "name",
              "type": "string"
            },
            {
              "internalType": "uint256",
              "name": "balance",
              "type": "uint256"
            },
            {
              "internalType": "uint256",
              "name": "spend",
              "type": "uint256"
            }
          ],
          "internalType": "struct Funds.Government",
          "name": "",
          "type": "tuple"
        }
      ],
      "stateMutability": "view",
      "type": "function"
    },
    {
      "inputs": [],
      "name": "GovernmentLogin",
      "outputs": [
        {
          "internalType": "bool",
          "name": "",
          "type": "bool"
        }
      ],
      "stateMutability": "view",
      "type": "function"
    },
    {
      "inputs": [
        {
          "internalType": "string",
          "name": "_govtype",
          "type": "string"
        },
        {
          "internalType": "string",
          "name": "_name",
          "type": "string"
        }
      ],
      "name": "Register",
      "outputs": [],
      "stateMutability": "nonpayable",
      "type": "function"
    },
    {
      "inputs": [
        {
          "internalType": "uint256",
          "name": "_amount",
          "type": "uint256"
        },
        {
          "internalType": "string",
          "name": "_to",
          "type": "string"
        },
        {
          "internalType": "string",
          "name": "_project",
          "type": "string"
        }
      ],
      "name": "TransferFunds",
      "outputs": [],
      "stateMutability": "nonpayable",
      "type": "function"
    },
    {
      "inputs": [
        {
          "internalType": "uint256",
          "name": "",
          "type": "uint256"
        }
      ],
      "name": "alloc",
      "outputs": [
        {
          "internalType": "uint256",
          "name": "amount",
          "type": "uint256"
        },
        {
          "internalType": "uint256",
          "name": "time",
          "type": "uint256"
        }
      ],
      "stateMutability": "view",
      "type": "function"
    },
    {
      "inputs": [],
      "name": "balance",
      "outputs": [
        {
          "internalType": "uint256",
          "name": "",
          "type": "uint256"
        }
      ],
      "stateMutability": "view",
      "type": "function"
    },
    {
      "inputs": [],
      "name": "central",
      "outputs": [
        {
          "internalType": "address",
          "name": "",
          "type": "address"
        }
      ],
      "stateMutability": "view",
      "type": "function"
    },
    {
      "inputs": [],
      "name": "getAllGovernmentAllocatedTrancations",
      "outputs": [
        {
          "components": [
            {
              "internalType": "address",
              "name": "from",
              "type": "address"
            },
            {
              "internalType": "address",
              "name": "to",
              "type": "address"
            },
            {
              "internalType": "string",
              "name": "from_name",
              "type": "string"
            },
            {
              "internalType": "string",
              "name": "to_name",
              "type": "string"
            },
            {
              "internalType": "uint256",
              "name": "time",
              "type": "uint256"
            },
            {
              "internalType": "uint256",
              "name": "amount",
              "type": "uint256"
            },
            {
              "internalType": "string",
              "name": "project_name",
              "type": "string"
            }
          ],
          "internalType": "struct Funds.Transactions[]",
          "name": "",
          "type": "tuple[]"
        }
      ],
      "stateMutability": "view",
      "type": "function"
    },
    {
      "inputs": [],
      "name": "getAllGovernmentSpendTrancations",
      "outputs": [
        {
          "components": [
            {
              "internalType": "address",
              "name": "from",
              "type": "address"
            },
            {
              "internalType": "address",
              "name": "to",
              "type": "address"
            },
            {
              "internalType": "string",
              "name": "from_name",
              "type": "string"
            },
            {
              "internalType": "string",
              "name": "to_name",
              "type": "string"
            },
            {
              "internalType": "uint256",
              "name": "time",
              "type": "uint256"
            },
            {
              "internalType": "uint256",
              "name": "amount",
              "type": "uint256"
            },
            {
              "internalType": "string",
              "name": "project_name",
              "type": "string"
            }
          ],
          "internalType": "struct Funds.Transactions[]",
          "name": "",
          "type": "tuple[]"
        }
      ],
      "stateMutability": "view",
      "type": "function"
    },
    {
      "inputs": [],
      "name": "getAllTrancations",
      "outputs": [
        {
          "components": [
            {
              "internalType": "address",
              "name": "from",
              "type": "address"
            },
            {
              "internalType": "address",
              "name": "to",
              "type": "address"
            },
            {
              "internalType": "string",
              "name": "from_name",
              "type": "string"
            },
            {
              "internalType": "string",
              "name": "to_name",
              "type": "string"
            },
            {
              "internalType": "uint256",
              "name": "time",
              "type": "uint256"
            },
            {
              "internalType": "uint256",
              "name": "amount",
              "type": "uint256"
            },
            {
              "internalType": "string",
              "name": "project_name",
              "type": "string"
            }
          ],
          "internalType": "struct Funds.Transactions[]",
          "name": "",
          "type": "tuple[]"
        }
      ],
      "stateMutability": "view",
      "type": "function"
    },
    {
      "inputs": [],
      "name": "getAllocatedFunds",
      "outputs": [
        {
          "components": [
            {
              "internalType": "uint256",
              "name": "amount",
              "type": "uint256"
            },
            {
              "internalType": "uint256",
              "name": "time",
              "type": "uint256"
            }
          ],
          "internalType": "struct Funds.Allocated[]",
          "name": "",
          "type": "tuple[]"
        }
      ],
      "stateMutability": "view",
      "type": "function"
    },
    {
      "inputs": [
        {
          "internalType": "uint256",
          "name": "",
          "type": "uint256"
        }
      ],
      "name": "gov",
      "outputs": [
        {
          "internalType": "address",
          "name": "add",
          "type": "address"
        },
        {
          "internalType": "string",
          "name": "gov_type",
          "type": "string"
        },
        {
          "internalType": "string",
          "name": "name",
          "type": "string"
        },
        {
          "internalType": "uint256",
          "name": "balance",
          "type": "uint256"
        },
        {
          "internalType": "uint256",
          "name": "spend",
          "type": "uint256"
        }
      ],
      "stateMutability": "view",
      "type": "function"
    },
    {
      "inputs": [],
      "name": "spend",
      "outputs": [
        {
          "internalType": "uint256",
          "name": "",
          "type": "uint256"
        }
      ],
      "stateMutability": "view",
      "type": "function"
    },
    {
      "inputs": [
        {
          "internalType": "uint256",
          "name": "",
          "type": "uint256"
        }
      ],
      "name": "transactions",
      "outputs": [
        {
          "internalType": "address",
          "name": "from",
          "type": "address"
        },
        {
          "internalType": "address",
          "name": "to",
          "type": "address"
        },
        {
          "internalType": "string",
          "name": "from_name",
          "type": "string"
        },
        {
          "internalType": "string",
          "name": "to_name",
          "type": "string"
        },
        {
          "internalType": "uint256",
          "name": "time",
          "type": "uint256"
        },
        {
          "internalType": "uint256",
          "name": "amount",
          "type": "uint256"
        },
        {
          "internalType": "string",
          "name": "project_name",
          "type": "string"
        }
      ],
      "stateMutability": "view",
      "type": "function"
    }
  ],
  "bytecode": "0x60806040523480156200001157600080fd5b50336000806101000a81548173ffffffffffffffffffffffffffffffffffffffff021916908373ffffffffffffffffffffffffffffffffffffffff1602179055506000600181905550600060028190555060046040518060a001604052803373ffffffffffffffffffffffffffffffffffffffff1681526020016040518060400160405280600781526020017f43656e7472616c0000000000000000000000000000000000000000000000000081525081526020016040518060400160405280600781526020017f43656e7472616c000000000000000000000000000000000000000000000000008152508152602001600081526020016000815250908060018154018082558091505060019003906000526020600020906005020160009091909190915060008201518160000160006101000a81548173ffffffffffffffffffffffffffffffffffffffff021916908373ffffffffffffffffffffffffffffffffffffffff16021790555060208201518160010190805190602001906200019b929190620001d7565b506040820151816002019080519060200190620001ba929190620001d7565b5060608201518160030155608082015181600401555050620002ec565b828054620001e59062000287565b90600052602060002090601f01602090048101928262000209576000855562000255565b82601f106200022457805160ff191683800117855562000255565b8280016001018555821562000255579182015b828111156200025457825182559160200191906001019062000237565b5b50905062000264919062000268565b5090565b5b808211156200028357600081600090555060010162000269565b5090565b60006002820490506001821680620002a057607f821691505b60208210811415620002b757620002b6620002bd565b5b50919050565b7f4e487b7100000000000000000000000000000000000000000000000000000000600052602260045260246000fd5b61351280620002fc6000396000f3fe608060405234801561001057600080fd5b506004361061012c5760003560e01c80639ace38c2116100ad578063d6192e2911610071578063d6192e291461032a578063e2c358e614610346578063e948b9c614610364578063f383027b14610398578063f8f8a912146103b65761012c565b80639ace38c21461027e578063b2048cd1146102b4578063b69ef8a8146102d2578063b7826af8146102f0578063ce032f561461030e5761012c565b80634054ff73116100f45780634054ff73146101da57806345615bcc146101f657806356e76a6614610214578063729d8f69146102445780637926fdb7146102625761012c565b806307676a73146101315780630c78065c1461014f578063191ac2d21461016d5780632338bd8b1461019e57806339a35f60146101bc575b600080fd5b6101396103d4565b60405161014691906130af565b60405180910390f35b610157610913565b60405161016491906130af565b60405180910390f35b61018760048036038101906101829190612af5565b610be8565b604051610195929190613129565b60405180910390f35b6101a6610c1c565b6040516101b391906130af565b60405180910390f35b6101c461115b565b6040516101d1919061310e565b60405180910390f35b6101f460048036038101906101ef9190612b1e565b611165565b005b6101fe6117ba565b60405161020b919061310e565b60405180910390f35b61022e60048036038101906102299190612a48565b6117c0565b60405161023b91906130d1565b60405180910390f35b61024c611948565b60405161025991906130ec565b60405180910390f35b61027c60048036038101906102779190612b1e565b611c8a565b005b61029860048036038101906102939190612af5565b61211e565b6040516102ab9796959493929190612fa8565b60405180910390f35b6102bc612348565b6040516102c991906130d1565b60405180910390f35b6102da612425565b6040516102e7919061310e565b60405180910390f35b6102f861242b565b6040516103059190612f8d565b60405180910390f35b61032860048036038101906103239190612af5565b61244f565b005b610344600480360381019061033f9190612a89565b61251a565b005b61034e61261f565b60405161035b91906130d1565b60405180910390f35b61037e60048036038101906103799190612af5565b612687565b60405161038f95949392919061302c565b60405180910390f35b6103a06127fd565b6040516103ad919061308d565b60405180910390f35b6103be612870565b6040516103cb919061310e565b60405180910390f35b6060600060058054905090506000805b828110156104ae573373ffffffffffffffffffffffffffffffffffffffff166005828154811061043d577f4e487b7100000000000000000000000000000000000000000000000000000000600052603260045260246000fd5b906000526020600020906007020160010160009054906101000a900473ffffffffffffffffffffffffffffffffffffffff1673ffffffffffffffffffffffffffffffffffffffff16141561049b576001826104989190613267565b91505b80806104a6906133de565b9150506103e4565b5060008167ffffffffffffffff8111156104f1577f4e487b7100000000000000000000000000000000000000000000000000000000600052604160045260246000fd5b60405190808252806020026020018201604052801561052a57816020015b61051761287a565b81526020019060019003908161050f5790505b5090506000805b84811015610908573373ffffffffffffffffffffffffffffffffffffffff166005828154811061058a577f4e487b7100000000000000000000000000000000000000000000000000000000600052603260045260246000fd5b906000526020600020906007020160010160009054906101000a900473ffffffffffffffffffffffffffffffffffffffff1673ffffffffffffffffffffffffffffffffffffffff1614156108f55760058181548110610612577f4e487b7100000000000000000000000000000000000000000000000000000000600052603260045260246000fd5b90600052602060002090600702016040518060e00160405290816000820160009054906101000a900473ffffffffffffffffffffffffffffffffffffffff1673ffffffffffffffffffffffffffffffffffffffff1673ffffffffffffffffffffffffffffffffffffffff1681526020016001820160009054906101000a900473ffffffffffffffffffffffffffffffffffffffff1673ffffffffffffffffffffffffffffffffffffffff1673ffffffffffffffffffffffffffffffffffffffff1681526020016002820180546106e79061337b565b80601f01602080910402602001604051908101604052809291908181526020018280546107139061337b565b80156107605780601f1061073557610100808354040283529160200191610760565b820191906000526020600020905b81548152906001019060200180831161074357829003601f168201915b505050505081526020016003820180546107799061337b565b80601f01602080910402602001604051908101604052809291908181526020018280546107a59061337b565b80156107f25780601f106107c7576101008083540402835291602001916107f2565b820191906000526020600020905b8154815290600101906020018083116107d557829003601f168201915b50505050508152602001600482015481526020016005820154815260200160068201805461081f9061337b565b80601f016020809104026020016040519081016040528092919081815260200182805461084b9061337b565b80156108985780601f1061086d57610100808354040283529160200191610898565b820191906000526020600020905b81548152906001019060200180831161087b57829003601f168201915b5050505050815250508383815181106108da577f4e487b7100000000000000000000000000000000000000000000000000000000600052603260045260246000fd5b60200260200101819052506001826108f29190613267565b91505b8080610900906133de565b915050610531565b508194505050505090565b60606005805480602002602001604051908101604052809291908181526020016000905b82821015610bdf57838290600052602060002090600702016040518060e00160405290816000820160009054906101000a900473ffffffffffffffffffffffffffffffffffffffff1673ffffffffffffffffffffffffffffffffffffffff1673ffffffffffffffffffffffffffffffffffffffff1681526020016001820160009054906101000a900473ffffffffffffffffffffffffffffffffffffffff1673ffffffffffffffffffffffffffffffffffffffff1673ffffffffffffffffffffffffffffffffffffffff168152602001600282018054610a169061337b565b80601f0160208091040260200160405190810160405280929190818152602001828054610a429061337b565b8015610a8f5780601f10610a6457610100808354040283529160200191610a8f565b820191906000526020600020905b815481529060010190602001808311610a7257829003601f168201915b50505050508152602001600382018054610aa89061337b565b80601f0160208091040260200160405190810160405280929190818152602001828054610ad49061337b565b8015610b215780601f10610af657610100808354040283529160200191610b21565b820191906000526020600020905b815481529060010190602001808311610b0457829003601f168201915b505050505081526020016004820154815260200160058201548152602001600682018054610b4e9061337b565b80601f0160208091040260200160405190810160405280929190818152602001828054610b7a9061337b565b8015610bc75780601f10610b9c57610100808354040283529160200191610bc7565b820191906000526020600020905b815481529060010190602001808311610baa57829003601f168201915b50505050508152505081526020019060010190610937565b50505050905090565b60038181548110610bf857600080fd5b90600052602060002090600202016000915090508060000154908060010154905082565b6060600060058054905090506000805b82811015610cf6573373ffffffffffffffffffffffffffffffffffffffff1660058281548110610c85577f4e487b7100000000000000000000000000000000000000000000000000000000600052603260045260246000fd5b906000526020600020906007020160000160009054906101000a900473ffffffffffffffffffffffffffffffffffffffff1673ffffffffffffffffffffffffffffffffffffffff161415610ce357600182610ce09190613267565b91505b8080610cee906133de565b915050610c2c565b5060008167ffffffffffffffff811115610d39577f4e487b7100000000000000000000000000000000000000000000000000000000600052604160045260246000fd5b604051908082528060200260200182016040528015610d7257816020015b610d5f61287a565b815260200190600190039081610d575790505b5090506000805b84811015611150573373ffffffffffffffffffffffffffffffffffffffff1660058281548110610dd2577f4e487b7100000000000000000000000000000000000000000000000000000000600052603260045260246000fd5b906000526020600020906007020160000160009054906101000a900473ffffffffffffffffffffffffffffffffffffffff1673ffffffffffffffffffffffffffffffffffffffff16141561113d5760058181548110610e5a577f4e487b7100000000000000000000000000000000000000000000000000000000600052603260045260246000fd5b90600052602060002090600702016040518060e00160405290816000820160009054906101000a900473ffffffffffffffffffffffffffffffffffffffff1673ffffffffffffffffffffffffffffffffffffffff1673ffffffffffffffffffffffffffffffffffffffff1681526020016001820160009054906101000a900473ffffffffffffffffffffffffffffffffffffffff1673ffffffffffffffffffffffffffffffffffffffff1673ffffffffffffffffffffffffffffffffffffffff168152602001600282018054610f2f9061337b565b80601f0160208091040260200160405190810160405280929190818152602001828054610f5b9061337b565b8015610fa85780601f10610f7d57610100808354040283529160200191610fa8565b820191906000526020600020905b815481529060010190602001808311610f8b57829003601f168201915b50505050508152602001600382018054610fc19061337b565b80601f0160208091040260200160405190810160405280929190818152602001828054610fed9061337b565b801561103a5780601f1061100f5761010080835404028352916020019161103a565b820191906000526020600020905b81548152906001019060200180831161101d57829003601f168201915b5050505050815260200160048201548152602001600582015481526020016006820180546110679061337b565b80601f01602080910402602001604051908101604052809291908181526020018280546110939061337b565b80156110e05780601f106110b5576101008083540402835291602001916110e0565b820191906000526020600020905b8154815290600101906020018083116110c357829003601f168201915b505050505081525050838381518110611122577f4e487b7100000000000000000000000000000000000000000000000000000000600052603260045260246000fd5b602002602001018190525060018261113a9190613267565b91505b8080611148906133de565b915050610d79565b508194505050505090565b6000600254905090565b6000600480549050905060008060005b83811015611236578560405160200161118e9190612f5f565b60405160208183030381529060405280519060200120600482815481106111de577f4e487b7100000000000000000000000000000000000000000000000000000000600052603260045260246000fd5b90600052602060002090600502016002016040516020016111ff9190612f76565b60405160208183030381529060405280519060200120141561122357809150611236565b808061122e906133de565b915050611175565b5060005b838110156112fc573373ffffffffffffffffffffffffffffffffffffffff1660048281548110611293577f4e487b7100000000000000000000000000000000000000000000000000000000600052603260045260246000fd5b906000526020600020906005020160000160009054906101000a900473ffffffffffffffffffffffffffffffffffffffff1673ffffffffffffffffffffffffffffffffffffffff1614156112e9578092506112fc565b80806112f4906133de565b91505061123a565b508560048281548110611338577f4e487b7100000000000000000000000000000000000000000000000000000000600052603260045260246000fd5b9060005260206000209060050201600301546113549190613267565b6004828154811061138e577f4e487b7100000000000000000000000000000000000000000000000000000000600052603260045260246000fd5b90600052602060002090600502016003018190555085600483815481106113de577f4e487b7100000000000000000000000000000000000000000000000000000000600052603260045260246000fd5b9060005260206000209060050201600301546113fa91906132bd565b60048381548110611434577f4e487b7100000000000000000000000000000000000000000000000000000000600052603260045260246000fd5b9060005260206000209060050201600301819055508560048381548110611484577f4e487b7100000000000000000000000000000000000000000000000000000000600052603260045260246000fd5b9060005260206000209060050201600401546114a09190613267565b600483815481106114da577f4e487b7100000000000000000000000000000000000000000000000000000000600052603260045260246000fd5b90600052602060002090600502016004018190555060056040518060e001604052803373ffffffffffffffffffffffffffffffffffffffff16815260200160048481548110611552577f4e487b7100000000000000000000000000000000000000000000000000000000600052603260045260246000fd5b906000526020600020906005020160000160009054906101000a900473ffffffffffffffffffffffffffffffffffffffff1673ffffffffffffffffffffffffffffffffffffffff168152602001600485815481106115d9577f4e487b7100000000000000000000000000000000000000000000000000000000600052603260045260246000fd5b906000526020600020906005020160020180546115f59061337b565b80601f01602080910402602001604051908101604052809291908181526020018280546116219061337b565b801561166e5780601f106116435761010080835404028352916020019161166e565b820191906000526020600020905b81548152906001019060200180831161165157829003601f168201915b5050505050815260200187815260200142815260200188815260200186815250908060018154018082558091505060019003906000526020600020906007020160009091909190915060008201518160000160006101000a81548173ffffffffffffffffffffffffffffffffffffffff021916908373ffffffffffffffffffffffffffffffffffffffff16021790555060208201518160010160006101000a81548173ffffffffffffffffffffffffffffffffffffffff021916908373ffffffffffffffffffffffffffffffffffffffff16021790555060408201518160020190805190602001906117619291906128e3565b50606082015181600301908051906020019061177e9291906128e3565b506080820151816004015560a0820151816005015560c08201518160060190805190602001906117af9291906128e3565b505050505050505050565b60025481565b600080600480549050905060005b8181101561193c57836040516020016117e79190612f5f565b6040516020818303038152906040528051906020012060048281548110611837577f4e487b7100000000000000000000000000000000000000000000000000000000600052603260045260246000fd5b90600052602060002090600502016002016040516020016118589190612f76565b60405160208183030381529060405280519060200120141561187f57600092505050611943565b600481815481106118b9577f4e487b7100000000000000000000000000000000000000000000000000000000600052603260045260246000fd5b906000526020600020906005020160000160009054906101000a900473ffffffffffffffffffffffffffffffffffffffff1673ffffffffffffffffffffffffffffffffffffffff163373ffffffffffffffffffffffffffffffffffffffff16141561192957600092505050611943565b8080611934906133de565b9150506117ce565b5060019150505b919050565b611950612969565b6000600480549050905060005b81811015611c01573373ffffffffffffffffffffffffffffffffffffffff16600482815481106119b6577f4e487b7100000000000000000000000000000000000000000000000000000000600052603260045260246000fd5b906000526020600020906005020160000160009054906101000a900473ffffffffffffffffffffffffffffffffffffffff1673ffffffffffffffffffffffffffffffffffffffff161415611bee5760048181548110611a3e577f4e487b7100000000000000000000000000000000000000000000000000000000600052603260045260246000fd5b90600052602060002090600502016040518060a00160405290816000820160009054906101000a900473ffffffffffffffffffffffffffffffffffffffff1673ffffffffffffffffffffffffffffffffffffffff1673ffffffffffffffffffffffffffffffffffffffff168152602001600182018054611abd9061337b565b80601f0160208091040260200160405190810160405280929190818152602001828054611ae99061337b565b8015611b365780601f10611b0b57610100808354040283529160200191611b36565b820191906000526020600020905b815481529060010190602001808311611b1957829003601f168201915b50505050508152602001600282018054611b4f9061337b565b80601f0160208091040260200160405190810160405280929190818152602001828054611b7b9061337b565b8015611bc85780601f10611b9d57610100808354040283529160200191611bc8565b820191906000526020600020905b815481529060010190602001808311611bab57829003601f168201915b505050505081526020016003820154815260200160048201548152505092505050611c87565b8080611bf9906133de565b91505061195d565b5060006040518060400160405280600581526020017f656d707479000000000000000000000000000000000000000000000000000000815250905060006040518060a00160405280600073ffffffffffffffffffffffffffffffffffffffff16815260200183815260200183815260200160008152602001600081525090508093505050505b90565b60006004805490509050600080600090505b82811015611d5d5784604051602001611cb59190612f5f565b6040516020818303038152906040528051906020012060048281548110611d05577f4e487b7100000000000000000000000000000000000000000000000000000000600052603260045260246000fd5b9060005260206000209060050201600201604051602001611d269190612f76565b604051602081830303815290604052805190602001201415611d4a57809150611d5d565b8080611d55906133de565b915050611c9c565b5084600154611d6c91906132bd565b60018190555084600254611d809190613267565b6002819055508460048281548110611dc1577f4e487b7100000000000000000000000000000000000000000000000000000000600052603260045260246000fd5b906000526020600020906005020160030154611ddd9190613267565b60048281548110611e17577f4e487b7100000000000000000000000000000000000000000000000000000000600052603260045260246000fd5b9060005260206000209060050201600301819055506001546004600081548110611e6a577f4e487b7100000000000000000000000000000000000000000000000000000000600052603260045260246000fd5b9060005260206000209060050201600301819055506002546004600081548110611ebd577f4e487b7100000000000000000000000000000000000000000000000000000000600052603260045260246000fd5b90600052602060002090600502016004018190555060056040518060e0016040528060008054906101000a900473ffffffffffffffffffffffffffffffffffffffff1673ffffffffffffffffffffffffffffffffffffffff16815260200160048481548110611f55577f4e487b7100000000000000000000000000000000000000000000000000000000600052603260045260246000fd5b906000526020600020906005020160000160009054906101000a900473ffffffffffffffffffffffffffffffffffffffff1673ffffffffffffffffffffffffffffffffffffffff1681526020016040518060400160405280600781526020017f43656e7472616c00000000000000000000000000000000000000000000000000815250815260200186815260200142815260200187815260200185815250908060018154018082558091505060019003906000526020600020906007020160009091909190915060008201518160000160006101000a81548173ffffffffffffffffffffffffffffffffffffffff021916908373ffffffffffffffffffffffffffffffffffffffff16021790555060208201518160010160006101000a81548173ffffffffffffffffffffffffffffffffffffffff021916908373ffffffffffffffffffffffffffffffffffffffff16021790555060408201518160020190805190602001906120c69291906128e3565b5060608201518160030190805190602001906120e39291906128e3565b506080820151816004015560a0820151816005015560c08201518160060190805190602001906121149291906128e3565b5050505050505050565b6005818154811061212e57600080fd5b90600052602060002090600702016000915090508060000160009054906101000a900473ffffffffffffffffffffffffffffffffffffffff16908060010160009054906101000a900473ffffffffffffffffffffffffffffffffffffffff169080600201805461219d9061337b565b80601f01602080910402602001604051908101604052809291908181526020018280546121c99061337b565b80156122165780601f106121eb57610100808354040283529160200191612216565b820191906000526020600020905b8154815290600101906020018083116121f957829003601f168201915b50505050509080600301805461222b9061337b565b80601f01602080910402602001604051908101604052809291908181526020018280546122579061337b565b80156122a45780601f10612279576101008083540402835291602001916122a4565b820191906000526020600020905b81548152906001019060200180831161228757829003601f168201915b5050505050908060040154908060050154908060060180546122c59061337b565b80601f01602080910402602001604051908101604052809291908181526020018280546122f19061337b565b801561233e5780601f106123135761010080835404028352916020019161233e565b820191906000526020600020905b81548152906001019060200180831161232157829003601f168201915b5050505050905087565b600080600480549050905060005b8181101561241b573373ffffffffffffffffffffffffffffffffffffffff16600482815481106123af577f4e487b7100000000000000000000000000000000000000000000000000000000600052603260045260246000fd5b906000526020600020906005020160000160009054906101000a900473ffffffffffffffffffffffffffffffffffffffff1673ffffffffffffffffffffffffffffffffffffffff16141561240857600192505050612422565b8080612413906133de565b915050612356565b5060009150505b90565b60015481565b60008054906101000a900473ffffffffffffffffffffffffffffffffffffffff1681565b8060015461245d9190613267565b6004600081548110612498577f4e487b7100000000000000000000000000000000000000000000000000000000600052603260045260246000fd5b9060005260206000209060050201600301819055506003604051806040016040528083815260200142815250908060018154018082558091505060019003906000526020600020906002020160009091909190915060008201518160000155602082015181600101555050806001546125119190613267565b60018190555050565b60046040518060a001604052803373ffffffffffffffffffffffffffffffffffffffff168152602001848152602001838152602001600081526020016000815250908060018154018082558091505060019003906000526020600020906005020160009091909190915060008201518160000160006101000a81548173ffffffffffffffffffffffffffffffffffffffff021916908373ffffffffffffffffffffffffffffffffffffffff16021790555060208201518160010190805190602001906125e79291906128e3565b5060408201518160020190805190602001906126049291906128e3565b50606082015181600301556080820151816004015550505050565b60008060009054906101000a900473ffffffffffffffffffffffffffffffffffffffff1673ffffffffffffffffffffffffffffffffffffffff163373ffffffffffffffffffffffffffffffffffffffff16141561267f5760019050612684565b600090505b90565b6004818154811061269757600080fd5b90600052602060002090600502016000915090508060000160009054906101000a900473ffffffffffffffffffffffffffffffffffffffff16908060010180546126e09061337b565b80601f016020809104026020016040519081016040528092919081815260200182805461270c9061337b565b80156127595780601f1061272e57610100808354040283529160200191612759565b820191906000526020600020905b81548152906001019060200180831161273c57829003601f168201915b50505050509080600201805461276e9061337b565b80601f016020809104026020016040519081016040528092919081815260200182805461279a9061337b565b80156127e75780601f106127bc576101008083540402835291602001916127e7565b820191906000526020600020905b8154815290600101906020018083116127ca57829003601f168201915b5050505050908060030154908060040154905085565b60606003805480602002602001604051908101604052809291908181526020016000905b8282101561286757838290600052602060002090600202016040518060400160405290816000820154815260200160018201548152505081526020019060010190612821565b50505050905090565b6000600154905090565b6040518060e00160405280600073ffffffffffffffffffffffffffffffffffffffff168152602001600073ffffffffffffffffffffffffffffffffffffffff16815260200160608152602001606081526020016000815260200160008152602001606081525090565b8280546128ef9061337b565b90600052602060002090601f0160209004810192826129115760008555612958565b82601f1061292a57805160ff1916838001178555612958565b82800160010185558215612958579182015b8281111561295757825182559160200191906001019061293c565b5b50905061296591906129ae565b5090565b6040518060a00160405280600073ffffffffffffffffffffffffffffffffffffffff168152602001606081526020016060815260200160008152602001600081525090565b5b808211156129c75760008160009055506001016129af565b5090565b60006129de6129d984613177565b613152565b9050828152602081018484840111156129f657600080fd5b612a01848285613339565b509392505050565b600082601f830112612a1a57600080fd5b8135612a2a8482602086016129cb565b91505092915050565b600081359050612a42816134c5565b92915050565b600060208284031215612a5a57600080fd5b600082013567ffffffffffffffff811115612a7457600080fd5b612a8084828501612a09565b91505092915050565b60008060408385031215612a9c57600080fd5b600083013567ffffffffffffffff811115612ab657600080fd5b612ac285828601612a09565b925050602083013567ffffffffffffffff811115612adf57600080fd5b612aeb85828601612a09565b9150509250929050565b600060208284031215612b0757600080fd5b6000612b1584828501612a33565b91505092915050565b600080600060608486031215612b3357600080fd5b6000612b4186828701612a33565b935050602084013567ffffffffffffffff811115612b5e57600080fd5b612b6a86828701612a09565b925050604084013567ffffffffffffffff811115612b8757600080fd5b612b9386828701612a09565b9150509250925092565b6000612ba98383612deb565b60408301905092915050565b6000612bc18383612e97565b905092915050565b612bd2816132f1565b82525050565b612be1816132f1565b82525050565b6000612bf2826131dd565b612bfc8185613218565b9350612c07836131a8565b8060005b83811015612c38578151612c1f8882612b9d565b9750612c2a836131fe565b925050600181019050612c0b565b5085935050505092915050565b6000612c50826131e8565b612c5a8185613229565b935083602082028501612c6c856131b8565b8060005b85811015612ca85784840389528151612c898582612bb5565b9450612c948361320b565b925060208a01995050600181019050612c70565b50829750879550505050505092915050565b612cc381613303565b82525050565b6000612cd4826131f3565b612cde818561323a565b9350612cee818560208601613348565b612cf7816134b4565b840191505092915050565b6000612d0d826131f3565b612d17818561324b565b9350612d27818560208601613348565b612d30816134b4565b840191505092915050565b6000612d46826131f3565b612d50818561325c565b9350612d60818560208601613348565b80840191505092915050565b60008154612d798161337b565b612d83818661325c565b94506001821660008114612d9e5760018114612daf57612de2565b60ff19831686528186019350612de2565b612db8856131c8565b60005b83811015612dda57815481890152600182019150602081019050612dbb565b838801955050505b50505092915050565b604082016000820151612e016000850182612f41565b506020820151612e146020850182612f41565b50505050565b600060a083016000830151612e326000860182612bc9565b5060208301518482036020860152612e4a8282612cc9565b91505060408301518482036040860152612e648282612cc9565b9150506060830151612e796060860182612f41565b506080830151612e8c6080860182612f41565b508091505092915050565b600060e083016000830151612eaf6000860182612bc9565b506020830151612ec26020860182612bc9565b5060408301518482036040860152612eda8282612cc9565b91505060608301518482036060860152612ef48282612cc9565b9150506080830151612f096080860182612f41565b5060a0830151612f1c60a0860182612f41565b5060c083015184820360c0860152612f348282612cc9565b9150508091505092915050565b612f4a8161332f565b82525050565b612f598161332f565b82525050565b6000612f6b8284612d3b565b915081905092915050565b6000612f828284612d6c565b915081905092915050565b6000602082019050612fa26000830184612bd8565b92915050565b600060e082019050612fbd600083018a612bd8565b612fca6020830189612bd8565b8181036040830152612fdc8188612d02565b90508181036060830152612ff08187612d02565b9050612fff6080830186612f50565b61300c60a0830185612f50565b81810360c083015261301e8184612d02565b905098975050505050505050565b600060a0820190506130416000830188612bd8565b81810360208301526130538187612d02565b905081810360408301526130678186612d02565b90506130766060830185612f50565b6130836080830184612f50565b9695505050505050565b600060208201905081810360008301526130a78184612be7565b905092915050565b600060208201905081810360008301526130c98184612c45565b905092915050565b60006020820190506130e66000830184612cba565b92915050565b600060208201905081810360008301526131068184612e1a565b905092915050565b60006020820190506131236000830184612f50565b92915050565b600060408201905061313e6000830185612f50565b61314b6020830184612f50565b9392505050565b600061315c61316d565b905061316882826133ad565b919050565b6000604051905090565b600067ffffffffffffffff82111561319257613191613485565b5b61319b826134b4565b9050602081019050919050565b6000819050602082019050919050565b6000819050602082019050919050565b60008190508160005260206000209050919050565b600081519050919050565b600081519050919050565b600081519050919050565b6000602082019050919050565b6000602082019050919050565b600082825260208201905092915050565b600082825260208201905092915050565b600082825260208201905092915050565b600082825260208201905092915050565b600081905092915050565b60006132728261332f565b915061327d8361332f565b9250827fffffffffffffffffffffffffffffffffffffffffffffffffffffffffffffffff038211156132b2576132b1613427565b5b828201905092915050565b60006132c88261332f565b91506132d38361332f565b9250828210156132e6576132e5613427565b5b828203905092915050565b60006132fc8261330f565b9050919050565b60008115159050919050565b600073ffffffffffffffffffffffffffffffffffffffff82169050919050565b6000819050919050565b82818337600083830152505050565b60005b8381101561336657808201518184015260208101905061334b565b83811115613375576000848401525b50505050565b6000600282049050600182168061339357607f821691505b602082108114156133a7576133a6613456565b5b50919050565b6133b6826134b4565b810181811067ffffffffffffffff821117156133d5576133d4613485565b5b80604052505050565b60006133e98261332f565b91507fffffffffffffffffffffffffffffffffffffffffffffffffffffffffffffffff82141561341c5761341b613427565b5b600182019050919050565b7f4e487b7100000000000000000000000000000000000000000000000000000000600052601160045260246000fd5b7f4e487b7100000000000000000000000000000000000000000000000000000000600052602260045260246000fd5b7f4e487b7100000000000000000000000000000000000000000000000000000000600052604160045260246000fd5b6000601f19601f8301169050919050565b6134ce8161332f565b81146134d957600080fd5b5056fea26469706673582212206dbf27b45332235ce04d6e82c6dcb60a6c497f0b3ab9d888170575e8b342fab064736f6c63430008010033",
  "linkReferences": {},
  "deployedLinkReferences": {}
}